:100000000C9462000C948A000C948A000C948A0070
:100010000C948A000C948A000C948A000C948A0038
:100020000C948A000C948A000C948A000C948A0028
:100030000C948A000C948A000C948A000C948A0018
:100040000C94C2060C9483080C9432070C940C0791
:100050000C948A000C948A000C948A000C948A00F8
:100060000C9464070C948A00000000002400270010
:100070002A000000000023002600290000000000E4
:10008000250028002B0004040404040404040202D4
:100090000202020203030303030301020408102007
:1000A0004080010204081020010204081020000012
:1000B0000008000201000003040700000000000027
:1000C00000009A0811241FBECFEFD8E0DEBFCDBFDD
:1000D00011E0A0E0B1E0EAE5F9E102C005900D927F
:1000E000A833B107D9F722E0A8E3B1E001C01D921F
:1000F000AF3AB207E1F710E0C2E6D0E004C02197C2
:10010000FE010E94A50CC136D107C9F70E94D6088E
:100110000C94AB0C0C940000833081F028F48130F7
:1001200099F08230A9F008958730A9F08830C9F09D
:100130008430B1F4809180008F7D03C08091800075
:100140008F7780938000089584B58F7784BD08955C
:1001500084B58F7DFBCF8091B0008F778093B00006
:1001600008958091B0008F7DF9CF1F93CF93DF93D7
:10017000282F30E0F901E255FF4F8491F901E6564E
:10018000FF4FD491F901EA57FF4FC491CC23A9F056
:10019000162F81110E948C00EC2FF0E0EE0FFF1F54
:1001A000E458FF4FA591B4918FB7F894EC911111D9
:1001B00008C0D095DE23DC938FBFDF91CF911F91D4
:1001C0000895DE2BF8CF3FB7F89480918401909189
:1001D0008501A0918601B091870126B5A89B05C035
:1001E0002F3F19F00196A11DB11D3FBFBA2FA92FB6
:1001F000982F8827BC01CD01620F711D811D911DB3
:1002000042E0660F771F881F991F4A95D1F708951E
:1002100008950895AF92BF92CF92DF92EF92FF922E
:100220000F931F93CF93DF936C017B018B01040F1E
:10023000151FEB015E01AE18BF08C017D10759F0BA
:100240006991D601ED91FC910190F081E02DC601FC
:100250000995892B79F7C501DF91CF911F910F91F6
:10026000FF90EF90DF90CF90BF90AF900895FC018A
:10027000538D448D252F30E0842F90E0821B930B0B
:10028000541710F0CF96089501970895FC01918DB1
:10029000828D981761F0A28DAE0FBF2FB11D5D96B4
:1002A0008C91928D9F5F9F73928F90E008958FEF56
:1002B0009FEF0895FC01918D828D981731F0828D0A
:1002C000E80FF11D858D90E008958FEF9FEF089561
:1002D000FC01918D228D892F90E0805C9F4F821BC5
:1002E00091098F73992708958EEF91E00E9468011C
:1002F00021E0892B09F420E0822F089580E090E02E
:10030000892B29F00E94740181110C94000008953A
:10031000FC01A48DA80FB92FB11DA35ABF4F2C917A
:10032000848D90E001968F739927848FA689B78971
:100330002C93A089B1898C91837080648C93938D68
:10034000848D981306C00288F389E02D80818F7D0B
:1003500080830895EF92FF920F931F93CF93DF93C3
:10036000EC0181E0888F9B8D8C8D98131AC0E889F1
:10037000F989808185FF15C09FB7F894EE89FF89C0
:100380006083E889F98980818370806480839FBF5E
:1003900081E090E0DF91CF911F910F91FF90EF905E
:1003A0000895F62E0B8D10E00F5F1F4F0F7311276E
:1003B000E02E8C8D8E110CC00FB607FCFACFE889A9
:1003C000F989808185FFF5CFCE010E948801F1CFA8
:1003D000EB8DEC0FFD2FF11DE35AFF4FF0829FB71D
:1003E000F8940B8FEA89FB8980818062CFCFCF930D
:1003F000DF93EC01888D8823B9F0AA89BB89E8894D
:10040000F9898C9185FD03C0808186FD0DC00FB6F2
:1004100007FCF7CF8C9185FFF2CF808185FFEDCF70
:10042000CE010E948801E9CFDF91CF9108952091FC
:100430005901260F3327331F21323105ECF4209167
:10044000D401FC0190E080E0243069F082E008955E
:10045000A09159012191AC01475C5E4FA40FB52FCB
:10046000B11D2C930196861798F380915901680F5E
:100470006093590180E0089581E008951092D401BD
:1004800081E08093D3011092AE0161E082E10E948D
:10049000B50061E083E10E94B500E9EBF0E0808106
:1004A0008E7F808380818D7F808388E48093B800F5
:1004B00085E48093BC000895CF93DF9391E09093FF
:1004C00038018823B9F0C091B800D091BA0080916A
:1004D000BC008A7B8093BC0060E082E10E94B50092
:1004E00060E083E10E94B5000E943E02D093BA0012
:1004F000C093B800DF91CF9108958F929F92AF92F1
:10050000BF92CF92DF92EF92FF920F931F93CF9300
:10051000DF93D091FD01D13208F0D7C0182FC091E0
:10052000FC010E94E3006B017C018091D4018111E8
:100530006BC082E08093D4011093D3018FEF80933E
:10054000D2011092D101D093D001ACEDB1E0E0EB3B
:10055000F1E080E0D81391C01092AF018091AF011B
:10056000CC0FC82BC093AF018091AE01813009F050
:1005700088C01092AE010E94E3006B017C01809163
:10058000AF018093BB008091D6019091D701A091DB
:10059000D801B091D901892B8A2B8B2BA1F00E9415
:1005A000E3000091D6011091D7012091D80130913C
:1005B000D9016C197D098E099F09061717072807AD
:1005C000390708F442C08091BC0083FDD8CF85EC88
:1005D0008093BC000E94E3006B017C018091D401F8
:1005E000823009F450C08091D2018F3F09F46FC06E
:1005F0008091D201803209F46CC08091D2018033A5
:1006000009F469C084E026C08091D6019091D70199
:10061000A091D801B091D901892B8A2B8B2B09F499
:1006200084CF0E94E3008090D6019090D701A090E3
:10063000D801B090D9016C197D098E099F098616E1
:100640009706A806B90608F070CF8091D5010E94E0
:100650005C0285E01092DB011092FD011092DA013C
:10066000DF91CF911F910F91FF90EF90DF90CF908E
:10067000BF90AF909F908F9008959D9191938F5FC1
:1006800069CF85EEA5CF8091D6019091D701A09139
:10069000D801B091D901892B8A2B8B2B09F49ECFDD
:1006A0000E94E3000091D6011091D7012091D8015A
:1006B0003091D9016C197D098E099F09061717071A
:1006C0002807390708F08ACFC0CF81E0C3CF80E088
:1006D000C1CF82E0BFCF83E0BDCF0895E091890113
:1006E00080918801E81730F4F0E0E657FE4F8081F2
:1006F00090E008958FEF9FEF089590918901809188
:1007000088012FEF3FEF981748F4E92FF0E0E65704
:10071000FE4F208130E09F5F90938901C9010895C9
:100720008091880190918901891B990B0895CF923E
:10073000DF92EF92FF920F931F93CF93DF937C0191
:10074000CB018A012091DA01222389F0EB016B01B0
:10075000C40ED51ECC15DD0569F06991D701ED9168
:10076000FC910190F081E02DC7010995F3CF642F32
:100770000E941702C801DF91CF911F910F91FF9046
:10078000EF90DF90CF900895CF93DF931F92CDB776
:10079000DEB769832091DA012223F9F02091FD016F
:1007A000203258F021E030E0FC013383228390E0D6
:1007B00080E00F90DF91CF9108958091DB01E82FC9
:1007C000F0E0E452FE4F998190838F5F8093DB01CC
:1007D0008093FD0181E090E0ECCF61E0CE010196D5
:1007E0000E941702F7CFCF93DF93EA0191E0909335
:1007F000DA018093FC011092DB011092FD018BE97C
:1008000092E00E94C40369818BE992E00E94C403D4
:1008100068818BE992E00E94C40381E00E947D021E
:1008200091E0811190E0892FDF91CF91089590E0C0
:1008300080E008954F925F926F927F928F929F9285
:10084000AF92BF92DF92EF92FF920F931F93CF93DD
:10085000DF93182F7A01E9018FB7F8948090AA01ED
:100860009090AB01A090AC01B090AD018FBF81E042
:100870008093DA011093FC011092DB011092FD01CC
:100880008BE992E00E94C40381E00E947D020E94F5
:10089000E3002B013C018091D401811165C081E00E
:1008A0008093D4018093D3019FEF9093D201109253
:1008B000D1018093D0018093AF018091AF01110FDE
:1008C000182B1093AF018091AE01813009F097C0D1
:1008D0001092AE010E94E3002B013C018091AF0118
:1008E0008093BB008091D6019091D701A091D8014F
:1008F000B091D901892B8A2B8B2BA1F00E94E300A8
:100900000091D6011091D7012091D8013091D901E1
:100910006419750986099709061717072807390703
:1009200008F443C08091BC0083FDD8CF85EC809350
:10093000BC000E94E3002B013C018091D401813076
:1009400009F45FC08091D101823008F07CC08091B1
:10095000D101A0EBB1E0EAE8F1E090E0981751F1A5
:100960002D9121939F5FFACF8091D6019091D7016D
:10097000A091D801B091D901892B8A2B8B2B09F436
:100980008ACF0E94E3002091D6013091D701409197
:10099000D8015091D901641975098609970926175C
:1009A00037074807590708F076CF8091D5010E9494
:1009B0005C0280E0109289018093880101E010E0E0
:1009C0002E01712C612CDD24D3948BE992E00E94DE
:1009D0009003892B09F469C0111167C02097A9F50C
:1009E000011176C08BE992E00E947D03F70120811E
:1009F0003181822B932B9183808311E070C085EE2F
:100A000096CF8091D6019091D701A091D801B09155
:100A1000D901892B8A2B8B2B09F48FCF0E94E300FD
:100A20000091D6011091D7012091D8013091D901C0
:100A300064197509860997090617170728073907E2
:100A400008F07BCFB2CF82E084CF2FB7F8948091AB
:100A5000AA019091AB01A091AC01B091AD012FBF63
:100A600088199909AA09BB0984159505A605B70532
:100A700008F4B6CF8FB7F8944091AA015091AB011A
:100A80006091AC017091AD018FBF481959096A0995
:100A90007B09CE01B0E0A0E0481759076A077B0741
:100AA00030F0111104C01FEF02C0209719F7812FF9
:100AB000DF91CF911F910F91FF90EF90DF90BF904A
:100AC000AF909F908F907F906F905F904F90089520
:100AD0008BE992E00E947D03F701108281830D254E
:100AE00074CFDF92EF92FF920F931F93CF93DF9318
:100AF00000D000D0CDB7DEB7F82EE62ED42E890177
:100B000028EE33E0AE014D5F5F4F61E00E941A04B2
:100B10008823C9F18E2D8D19990BBC016F5F7F4F12
:100B20008B819C8121E030E002C0220F331FDA94D8
:100B3000E2F721503109062E02C0220F331F0A941A
:100B4000E2F702C0000F111F6A95E2F70827192784
:100B500020233123282739273C832B833A83298379
:100B6000AE014F5F5F4F61E08F2D0E94F3030F9046
:100B70000F900F900F90DF91CF911F910F91FF90E9
:100B8000EF90DF90089580E0F2CFDF92EF92FF9236
:100B90000F931F93CF93DF9300D000D0CDB7DEB774
:100BA000182F062FD42E790128EE33E0AE014D5FC9
:100BB0005F4F0E941A0421E030E002C0220F331F71
:100BC000DA94E2F78B819C81EF28C9F0822B932B7A
:100BD0009C838B839A838983AE014F5F5F4F602F25
:100BE000812F0E94F3030F900F900F900F90DF91D1
:100BF000CF911F910F91FF90EF90DF900895209576
:100C0000309582239323E4CFCF93C82F282F30E051
:100C100048E061E08091A7020E94C5058111C09360
:100C2000AC02CF9108950F931F93CF93DF9300D021
:100C3000CDB7DEB78091AC02882311F121E030E01E
:100C40004FE061E08091A7020E94C50508EE13E025
:100C500028EE33E0AE014F5F5F4F61E08091A70265
:100C60000E941A0489819A819C012227307830934E
:100C7000A9022093A80297FD03C00150110941F772
:100C800028EE33E048EA52E060E08091A7020E943B
:100C90001A048091A8029091A9020F900F90DF9101
:100CA000CF911F910F91089581E00E9404060E9448
:100CB000130680E00C940406CF93C82F282F30E051
:100CC00043E06BE08091A7020E947105882349F000
:100CD000C093AE028091AC02811103C0CF910C94FD
:100CE0005406CF910895CF93C82F282F30E043E0CA
:100CF0006EE08091A7020E947105882349F0C0939D
:100D0000AD028091AC02811103C0CF910C945406C6
:100D1000CF91089585ED8093BC008091D60190918C
:100D2000D701A091D801B091D9010796A11DB11D9D
:100D300023E0B695A795979587952A95D1F72091A9
:100D4000BC0024FD03C01092D40108954091D60147
:100D50005091D7016091D8017091D901452B462B54
:100D6000472B69F30097A105B10541F02AE22A95C6
:100D7000F1F700C00197A109B109E1CF8091D50138
:100D80000C945C021F920F920FB60F9211242F93B6
:100D90003F938F939F93AF93BF938091AA019091BC
:100DA000AB01A091AC01B091AD013091830123E082
:100DB000230F2D3758F50196A11DB11D20938301F6
:100DC0008093AA019093AB01A093AC01B093AD01C5
:100DD0008091840190918501A0918601B091870155
:100DE0000196A11DB11D8093840190938501A0936C
:100DF0008601B0938701BF91AF919F918F913F91F1
:100E00002F910F900FBE0F901F90189526E8230F7B
:100E10000296A11DB11DD2CF1F920F920FB60F9255
:100E200011242F933F934F935F936F937F938F93EF
:100E30009F93AF93BF93EF93FF938EEF91E00E9448
:100E40008801FF91EF91BF91AF919F918F917F9119
:100E50006F915F914F913F912F910F900FBE0F9027
:100E60001F9018951F920F920FB60F9211242F9377
:100E70008F939F93EF93FF93E0910E02F0910F02F7
:100E80008081E0911402F091150282FD1BC09081D7
:100E9000809117028F5F8F7320911802821741F0A3
:100EA000E0911702F0E0E250FE4F958F8093170219
:100EB000FF91EF919F918F912F910F900FBE0F9007
:100EC0001F9018958081F4CF1F920F920FB60F924A
:100ED00011242F933F934F935F936F937F938F933F
:100EE0009F93AF93BF93EF93FF938091B900887F57
:100EF000803609F44AC0F0F5883209F4A7C018F525
:100F0000803109F49BC0B8F4882309F4F9C0883013
:100F100009F494C0FF91EF91BF91AF919F918F9190
:100F20007F916F915F914F913F912F910F900FBEE5
:100F30000F901F901895883109F488C0803251F7BE
:100F40008093D20114C0803409F49DC040F48033F2
:100F5000B9F38833F9F68093D20185ECB0C08035BF
:100F600009F485C0883509F496C0883499F60E9442
:100F70008A06D0CF883909F48CC038F5883729F033
:100F800050F4883611F0803729F683E08093D4013D
:100F900010927B0157C0883809F47BC0803919F062
:100FA000803809F0B7CF80917B01803208F071C0A2
:100FB000E0917B0181E08E0F80937B018091BB00EB
:100FC000F0E0E55AFE4F80833DC0803B39F0E0F40D
:100FD000803A09F479C0883A09F09CCF84E0809384
:100FE000D40110925A0110925901E0917E01F091C2
:100FF0007F0109958091590181110FC081E0809393
:1010000059011092390109C0803C09F4A6CF883CEF
:1010100009F4A3CF883B09F07DCFE0915A0181E02C
:101020008E0F80935A01F0E0E75CFE4F8081809341
:10103000BB0090915A018091590129C08091AF0164
:101040008093BB0085EC8093BC0064CF9091D1016C
:101050008091D001981758F5E091D10181E08E0F71
:101060008093D101F0E0E055FE4F8081E9CFE0911F
:10107000D10181E08E0F8093D1018091BB00F0E01F
:10108000E055FE4F80839091D1018091D001981757
:10109000C8F285E8D8CFE091D10181E08E0F80932E
:1010A000D1018091BB00F0E0E055FE4F808380913C
:1010B000D30181115CCF81E08093AE0184EA8093FB
:1010C000BC001092D40126CF85EC8093BC00109216
:1010D000D40180917B01803230F4E0917B01F0E01B
:1010E000E55AFE4F108260917B0170E0E0917C0137
:1010F000F0917D018BE591E0099510927B010ACF7B
:101100001092D20134CF1F920F920FB60F9211247A
:101110008F938EB5813049F4809182018EBD8F917D
:101120000F900FBE0F901F9018958230C1F78091DD
:101130008001F4CFEEEFF1E01382128288EE93E0AB
:10114000A0E0B0E084839583A683B78324E031E0F8
:101150003183208325EC30E03587248724EC30E090
:101160003787268720EC30E0318B208B21EC30E074
:10117000338B228B22EC30E0358B248B26EC30E055
:10118000378B268B118E128E138E148EEBE9F2E0C4
:101190001382128284839583A683B78386E191E0CC
:1011A0009183808388E48093A7020895789484B51E
:1011B000826084BD84B5816084BD85B5826085BD53
:1011C00085B5816085BD80916E00816080936E00E1
:1011D00010928100809181008260809381008091D3
:1011E0008100816080938100809180008160809384
:1011F00080008091B10084608093B1008091B00044
:1012000081608093B00080917A00846080937A003E
:1012100080917A00826080937A0080917A00816068
:1012200080937A0080917A00806880937A0010928F
:10123000C10010928901109288011092DB01109276
:10124000FD010E943E0288E091E090937F0180932F
:101250007E0189E091E090937D0180937C01E09193
:101260000E02F0910F0282E08083E0910A02F09179
:101270000B021082E0910C02F0910D028FEC808342
:1012800010921602E0911202F091130286E0808320
:10129000E0911002F0911102808180618083E091E1
:1012A0001002F0911102808188608083E091100229
:1012B000F0911102808180688083E0911002F091AA
:1012C000110280818F7D808380E00E94730682E01E
:1012D0000E945C0681E00E94040624E030E043E0C6
:1012E00067E08091A7020E94710530E020E044E0B1
:1012F00061E08091A7020E94C50530E020E043E054
:1013000061E08091A7020E94C50530E020E042E044
:1013100061E08091A7020E94C50523E030E042E031
:1013200061E08091A7020E94710581E00E9404069D
:1013300030E020E043E067E08091A7020E94710561
:1013400083E00E945C065CE9252E50E0352EF10119
:10135000249108E810E0F80184918823C1F090E01E
:10136000880F991FFC01E859FF4FA591B491FC012A
:10137000E458FF4FC591D4913FB7F8948C91922FC8
:10138000909598239C938881822B88833FBF21E08E
:1013900030E04FE063E08091A7020E94C50530E095
:1013A00020E04FE062E08091A7020E94C50530E096
:1013B00020E043E061E08091A7020E94C50530E093
:1013C00020E042E061E08091A7020E947105E6EA18
:1013D000F0E02491E2E9F0E08491882399F090E034
:1013E000880F991FFC01E859FF4FA591B491FC01AA
:1013F000E458FF4F859194918FB7F894EC91E22BCC
:10140000EC938FBF8CB580648CBD8CB580688CBD2F
:101410004FE050E064E271E08EEF91E00E940A013B
:1014200042E050E064E371E08EEF91E00E940A0137
:10143000C0E0D0E084E00E94730621E030E04FE09D
:1014400061E08091A7020E94C505E0EBF0E0849185
:10145000F101B490F801A490AA2071F081110E94CA
:101460008C00EA2DF0E0EE0FFF1FEE58FF4FA59124
:10147000B4918C91B82249F7E091AE02E830E8F4DB
:10148000F0E0EB5BF54F0C94A50C4D0AC10ACE0AB7
:10149000DB0AE80AF50AF50AF50A0E941306BC0100
:1014A000990F880B990B0E94AC0B20E030E040E4D0
:1014B0005EE30E94380C6B017C0120E030E040E2EA
:1014C00051E4C701B6010E94020B0E947B0B60939E
:1014D0008201F0E4F0937C0080917A008064809334
:1014E0007A0080917A0086FDFCCF6091780070913F
:1014F0007900072E000C880B990B0E94AC0B2AE098
:1015000038E240EA5BE30E94380C20E030E048EC2F
:1015100052E40E94380C0E94740B70938101609316
:1015200080010E94E3002B013C0188EE882E83E0BD
:10153000982EA12CB12C0E94E3006419750986092C
:101540009709683E734081059105A8F321E0821A4E
:101550009108A108B10888EE480E83E0581E611C6E
:10156000711C81149104A104B10429F7209709F496
:1015700061CF0E947401882309F45CCF0E940000AF
:1015800059CF0E941306BC01990F880B990B0E943A
:10159000AC0B20E030E040E05EE38BCF0E9413060E
:1015A000BC01990F880B990B0E94AC0B20E030E036
:1015B00040E85DE37ECF0E941306BC01990F880BC3
:1015C000990B0E94AC0B20E030E040E05DE371CF6E
:1015D0000E941306BC01990F880B990B0E94AC0B5B
:1015E00020E030E040E85CE364CF0E941306BC01D9
:1015F000990F880B990B0E94AC0B29E132E040E077
:101600005CE357CF0E94160B0C94FE0B0E94F70B65
:1016100058F00E94F00B40F029F45F3F29F00C9441
:10162000E70B51110C94320C0C94ED0B0E940F0C33
:1016300068F39923B1F3552391F3951B550BBB2701
:10164000AA2762177307840738F09F5F5F4F220F46
:10165000331F441FAA1FA9F335D00E2E3AF0E0E83D
:1016600032D091505040E695001CCAF72BD0FE2F87
:1016700029D0660F771F881FBB1F2617370748071B
:10168000AB07B0E809F0BB0B802DBF01FF279358D3
:101690005F4F3AF09E3F510578F00C94E70B0C94A5
:1016A000320C5F3FE4F3983ED4F3869577956795C7
:1016B000B795F7959F5FC9F7880F911D9695879508
:1016C00097F90895E1E0660F771F881FBB1F621727
:1016D00073078407BA0720F0621B730B840BBA0BE5
:1016E000EE1F88F7E09508950E947B0B6894B11176
:1016F0000C94320C08950E94170C88F09F5798F0B4
:10170000B92F9927B751B0F0E1F0660F771F881F06
:10171000991F1AF0BA95C9F714C0B13091F00E9420
:10172000310CB1E008950C94310C672F782F882785
:10173000B85F39F0B93FCCF3869577956795B39547
:10174000D9F73EF490958095709561957F4F8F4FB6
:101750009F4F0895E89409C097FB3EF490958095BB
:10176000709561957F4F8F4F9F4F9923A9F0F92F67
:1017700096E9BB279395F695879577956795B795E5
:10178000F111F8CFFAF4BB0F11F460FF1BC06F5FCB
:101790007F4F8F4F9F4F16C0882311F096E911C0DD
:1017A000772321F09EE8872F762F05C0662371F0FE
:1017B00096E8862F70E060E02AF09A95660F771F12
:1017C000881FDAF7880F9695879597F9089597F906
:1017D0009F6780E870E060E008959FEF80EC0895D7
:1017E00000240A9416161706180609060895002400
:1017F0000A9412161306140605060895092E03947A
:10180000000C11F4882352F0BB0F40F4BF2B11F4ED
:1018100060FF04C06F5F7F4F8F4F9F4F089557FD4C
:101820009058440F551F59F05F3F71F04795880F4E
:1018300097FB991F61F09F3F79F0879508951216E5
:1018400013061406551FF2CF4695F1DF08C0161691
:1018500017061806991FF1CF869571056105089442
:101860000895E894BB2766277727CB0197F9089559
:101870000E944B0C0C94FE0B0E94F00B38F00E945F
:10188000F70B20F0952311F00C94E70B0C94ED0B63
:1018900011240C94320C0E940F0C70F3959FC1F32D
:1018A000950F50E0551F629FF001729FBB27F00D0E
:1018B000B11D639FAA27F00DB11DAA1F649F662763
:1018C000B00DA11D661F829F2227B00DA11D621FB2
:1018D000739FB00DA11D621F839FA00D611D221F6C
:1018E000749F3327A00D611D231F849F600D211D50
:1018F000822F762F6A2F11249F5750409AF0F1F0D3
:1019000088234AF0EE0FFF1FBB1F661F771F881F3B
:1019100091505040A9F79E3F510580F00C94E70B81
:101920000C94320C5F3FE4F3983ED4F386957795A0
:101930006795B795F795E7959F5FC1F7FE2B880FE1
:10194000911D9695879597F90895EE0FFF1F0590C5
:0A195000F491E02D0994F894FFCF04
:10195A0000000000AA010A013701F70168014601E7
:10196A005A0100000000C403970317046D03900393
:10197A007D036E0353504920536C6176652052658E
:08198A00616479000D0A000000
:00000001FF
