:020000040000FA
:100000000C9468010C9499010C9499010C94990139
:100010000C9499010C9499010C9499010C949901F8
:100020000C9499010C9499010C9499010C949901E8
:100030000C9499010C9499010C9499010C949901D8
:100040000C9499010C9499010C9499010C949901C8
:100050000C9499010C9499010C9499010C947F08CB
:100060000C9499010C94F3080C94C9080C94990110
:100070000C9499010C9499010C9499010C94990198
:100080000C9499010C9499010C9499010C94990188
:100090000C9499010C9499010C9499010C94990178
:1000A0000C9499010C9499010C9499010C94990168
:1000B0000C9499010C9499010C9499010C94990158
:1000C0000C9499010C9499010C9499010C94990148
:1000D0000C9499010C9499010C9499010C94990138
:1000E0000C9499010C94AB020C94B3020C94F4029E
:1000F0000C9485020C9491040C9412030C9401024C
:100100000C940C040C9436020C94C7020C948002DC
:100110000C94D1020C9405020C949B030C943C02A9
:100120000C9410020C9424020C94FE030C94A30271
:100130000C94020D0C94FE020C9409020C94AA0378
:100140000C942E020C94E0020C9428020C944002B1
:100150000C9479020C9408030C94EA010C940D029F
:100160000C948F020C9444040C94BD020C9416025F
:100170000C9420020C941A020C9432020C94EF019D
:100180000C94EA020C946E030C9499024E414E4971
:100190004E495459494E46CDCCCC3D0AD7233C1745
:1001A000B7D13877CC2B329595E6241FB14F0A0092
:1001B0000020410000C84200401C4620BCBE4CCA82
:1001C0001B0E5AAEC59D7400000A0B02090C0D0EE1
:1001D0000807030401000000000000000000000008
:1001E000000000000000000000000000000000000F
:1001F00000000012111000000000000000000000CC
:1002000000000000000000000000000000000022CC
:1002100000250028002B002E0031003400020100D0
:1002200000050108010B0100002100240027002A1D
:10023000002D003000330001010000040107010A15
:100240000105050505070508080808020202020A5B
:100250000A08080404040401010101010101010369
:1002600003030303030303040707070C0C0C0C0C24
:100270000C0C0C0202020206060606060606060B17
:100280000B0B0B0B0B0B0B0102102020080810208E
:100290004010204080020102010804020101020412
:1002A00008102040808040201008040201800402D1
:1002B0000180402010080402010804020101020428
:1002C0000810204080010204081020408000020D28
:1002D00011241FBECFEFD1E2DEBFCDBF00E00CBFC7
:1002E00024E0AAEAB3E001C01D92A936B207E1F703
:1002F00013E0A0E0B2E0E0E2F6E200E00BBF02C0F3
:1003000007900D92AA3AB107D9F711E0C8E6D1E0FB
:1003100000E006C021970109802FFE010E94BB105A
:10032000C736D10780E00807A9F70E9429090C9475
:100330000E130C94000090E0FC01E957FD4F24914E
:100340008F5B9D4FFC018491882399F090E0880F8A
:10035000991FFC01E95DFD4FA591B491FC01E35F9C
:10036000FD4F859194918FB7F894EC91E22BEC932B
:100370008FBF0895282F30E0F901E953FE4F949183
:10038000F901E957FD4F44912F5B3D4FF90124914D
:10039000222309F435C0992311F191509231F8F4D8
:1003A000E92FF0E08827E852FE4F8F4F0C94BB10E6
:1003B00009020D02EA0101020502EF011002160214
:1003C0001A022002240228022E023202EF01360213
:1003D0003C024002809180008F7780938000E22F62
:1003E000F0E0EE0FFF1FE35FFD4FA591B4918FB7D3
:1003F000F894EC91611148C040954E234C938FBF07
:100400000895809180008F7DE8CF80918000877F64
:10041000E4CF84B58F7784BDE2CF84B58F7DFBCFE9
:100420008091B0008F778093B000D9CF8091B000D9
:100430008F7DF9CF809190008F7780939000CFCF00
:10044000809190008F7DF9CF80919000877FF5CFCC
:100450008091A0008F778093A000C1CF8091A000F1
:100460008F7DF9CF8091A000877FF5CF809120010B
:100470008F7780932001B3CF809120018F7DF9CFBA
:1004800080912001877FF5CF4E2BB8CFCF93DF939C
:10049000EC0183E00E949B01209731F460E083E04F
:1004A000DF91CF910C94BA01CF3FD10511F461E0F7
:1004B000F6CFEAECF1E0E491E150E23108F0B2C0AD
:1004C000F0E08827E959FD4F8F4F0C94BB1079025B
:1004D000800285028F0299021203A302AB02B302CB
:1004E000BD02C702D102E002EA021203F402FE02D8
:1004F000080384B5806884BDC7BDDF91CF9108959E
:1005000084B5806284BDC8BDF8CF809180008068CA
:1005100080938000D0938900C0938800EECF8091B3
:100520008000806280938000D0938B00C0938A000B
:10053000E4CF80918000886080938000D0938D000C
:10054000C0938C00DACF8091B00080688093B000B7
:10055000C093B300D2CF8091B00080628093B0008E
:10056000C093B400CACF80919000806880939000BF
:10057000D0939900C0939800C0CF80919000806282
:1005800080939000D0939B00C0939A00B6CF809147
:100590009000886080939000D0939D00C0939C0051
:1005A000ACCF8091A00080688093A0008091A000D3
:1005B0008F7B8093A000D093A900C093A8009DCF0B
:1005C0008091A00080628093A000D093AB00C09384
:1005D000AA0093CF8091A00088608093A000D09360
:1005E000AD00C093AC0089CF8091200180688093DA
:1005F0002001D0932901C09328017FCF8091200151
:10060000806280932001D0932B01C0932A0175CF83
:1006100080912001886080932001D0932D01C093A8
:100620002C016BCFC038D1050CF041CF37CF3FB78D
:10063000F8948091BE039091BF03A091C003B09144
:10064000C10326B5A89B05C02F3F19F00196A11D37
:10065000B11D3FBFBA2FA92F982F8827BC01CD010C
:10066000620F711D811D911D42E0660F771F881F6B
:10067000991F4A95D1F708958F929F92AF92BF929A
:10068000CF92DF92EF92FF924B015C010E94170321
:100690006B017C010E9417036C197D098E099F096B
:1006A000683E734081059105A8F321E0821A910804
:1006B000A108B10888EEC80E83E0D81EE11CF11C29
:1006C00081149104A104B10429F7FF90EF90DF9009
:1006D000CF90BF90AF909F908F900895AF92BF92B0
:1006E000CF92DF92EF92FF920F931F93CF93DF93FE
:1006F0006C017B018B01040F151FEB015E01AE182D
:10070000BF08C017D10759F06991D601ED91FC914E
:100710000190F081E02DC6011995892B79F7C5016B
:10072000DF91CF911F910F91FF90EF90DF90CF90CD
:10073000BF90AF900895FC01538D448D252F30E07C
:10074000842F90E0821B930B541710F0CF960895DE
:1007500001970895FC01918D828D981761F0A28D0B
:10076000AE0FBF2FB11D5D968C91928D9F5F9F73D1
:10077000928F90E008958FEF9FEF08952FB7F89430
:100780008091C2039091C303A091C403B091C503AB
:100790002FBF8093CE039093CF03A093D003B09349
:1007A000D10386EC93E00E94AA0397FF26C02FB7DF
:1007B000F8948091C2039091C303A091C403B091B7
:1007C000C5032FBF4091CE035091CF036091D0035A
:1007D0007091D103841B950BA60BB70B4091CA03F4
:1007E0005091CB036091CC037091CD038417950792
:1007F000A607B707B0F28FEF9FEF0895FC01918D28
:10080000828D981731F0828DE80FF11D858D90E073
:1008100008958FEF9FEF0895FC01918D228D892F10
:1008200090E0805C9F4F821B91098F7399270895F8
:1008300086EC93E00E940C0421E0892B09F420E06F
:10084000822F0895FC01A48DA80FB92FB11DA35AC2
:10085000BF4F2C91848D90E001968F739927848FE0
:10086000A689B7892C93A089B1898C918370806403
:100870008C93938D848D981306C00288F389E02DA4
:1008800080818F7D80830895EF92FF920F931F9355
:10089000CF93DF93EC0181E0888F9B8D8C8D981333
:1008A0001AC0E889F989808185FF15C09FB7F8943F
:1008B000EE89FF896083E889F9898081837080648B
:1008C00080839FBF81E090E0DF91CF911F910F91D6
:1008D000FF90EF900895F62E0B8D10E00F5F1F4FE5
:1008E0000F731127E02E8C8D8E110CC00FB607FCF4
:1008F000FACFE889F989808185FFF5CFCE010E9482
:100900002204F1CFEB8DEC0FFD2FF11DE35AFF4FC9
:10091000F0829FB7F8940B8FEA89FB89808180620F
:10092000CFCFCF93DF93EC01888D8823B9F0AA89CC
:10093000BB89E889F9898C9185FD03C0808186FD9A
:100940000DC00FB607FCF7CF8C9185FFF2CF8081E9
:1009500085FFEDCFCE010E942204E9CFDF91CF9138
:10096000089580E090E0892B29F00E9418048111FD
:100970000E94000080E090E0892B49F080E090E048
:10098000892B29F00E94000081110E94000080E064
:1009900090E0892B49F080E090E0892B29F00E94BB
:1009A000000081110E94000080E090E0892B49F056
:1009B00080E090E0892B29F00E94000081110C94C6
:1009C000000008952F923F924F925F926F927F9214
:1009D0008F929F92AF92BF92CF92DF92EF92FF924F
:1009E0000F931F93CF93DF9300D01F92CDB7DEB745
:1009F0009C838B832A013B015AE2A52E52E0B52E3F
:100A000010E000E0312C80EC898399E79A8364E45C
:100A1000262E912C812CF5012191319141915191FA
:100A20005F01C301B2010E94F30F6B017C01E894E6
:100A3000F7F8232D39814A81522DC701B6010E9452
:100A4000B20E87FF05C03C2CD982EA822F2C4801C8
:100A50000F5F1F4F09301105F1F68401000F111FC0
:100A6000000F111FF801EA5FFD4F61E080818111E5
:100A700001C060E0EB80FC8033E0EE0CFF1C3A9597
:100A8000E1F7F701E05AFD4F80810E94BA0161E071
:100A9000F801EA5FFD4F8181811101C060E0F7013B
:100AA000E05AFD4F82810E94BA0161E0F801EA5FDD
:100AB000FD4F8281811101C060E0F701E05AFD4FD6
:100AC00084810E94BA0161E0F801EA5FFD4F8381F1
:100AD000811101C060E0F701E05AFD4F86810E945C
:100AE000BA018B819C81880F991F880F991F8355AC
:100AF0009C4F9C838B83F801E65DFD4F8081918143
:100B0000A281B381EB81FC8180839183A283B38333
:100B10000F900F900F900F90DF91CF911F910F9139
:100B2000FF90EF90DF90CF90BF90AF909F908F900D
:100B30007F906F905F904F903F902F900895CF934C
:100B4000DF93D0E0C0E040E050E0BA01CE010E9467
:100B5000E2042196C430D105B1F7DF91CF91089519
:100B60008EBD00000DB407FEFDCF8EB50895FC01CB
:100B700001900020E9F73197AF01481B590BBC01E8
:100B800086EC93E00C946E038F929F92AF92BF928B
:100B90000F931F93CF93DF93CDB7DEB7A1970FB617
:100BA000F894DEBF0FBECDBF19A2423008F44AE070
:100BB0008E010F5D1F4F842E912CB12CA12CA5010D
:100BC00094010E949910E62FB901CA01EA30F4F4A9
:100BD000E05DD801EE938D01232B242B252B79F793
:100BE00090E080E0109719F0CD010E94B705A19622
:100BF0000FB6F894DEBF0FBECDBFDF91CF911F912E
:100C00000F91BF90AF909F908F900895E95CE1CFD6
:100C1000CF93DF930E94B705EC0180E892E00E9439
:100C2000B7058C0F9D1FDF91CF910895CF92DF9272
:100C3000EF92FF92CF93DF936C01990FEE08FF08BC
:100C4000F7FE19C06DE286EC93E00E944404EC01CB
:100C500066277727CB016C197D098E099F094AE029
:100C60000E94C4058C0F9D1FDF91CF91FF90EF90E4
:100C7000DF90CF9008954AE0C701B601DF91CF9190
:100C8000FF90EF90DF90CF900C94C4054F925F924D
:100C90006F927F928F929F92AF92BF92CF92DF928C
:100CA000EF92FF926B017C01AC019B010E949410BA
:100CB0008823C1F083E892E00E94B7057C0180E8B8
:100CC00092E00E94B7058E0D9F1DFF90EF90DF9080
:100CD000CF90BF90AF909F908F907F906F905F90DC
:100CE0004F90089546015701E894B7F82FEF3FEF72
:100CF0004FE75FE7C501B4010E94941081110DC058
:100D00002FEF3FEF4FE75FE7C501B4010E94B20E3E
:100D100018161CF487E892E0CFCF2FEF3FEF4FE794
:100D20005FE4C701B6010E948F1018161CF48BE80F
:100D300092E0C2CF2FEF3FEF4FE75FECC701B60164
:100D40000E94B20E87FDF3CF20E030E0A901C70179
:100D5000B6010E94B20EB12CA12C87FF0AC06DE231
:100D600086EC93E00E9444045C01F7FAF094F7F8F3
:100D7000F0942AE037ED43EA5BE3C701B6010E9435
:100D8000F40F2B013C010E9460106B017C010E945A
:100D9000B70E9B01AC01C301B2010E94F30F2B01FE
:100DA0003C014AE0C701B6010E94C4057C01EA0C7F
:100DB000FB1C6EE286EC93E00E944404E80EF91EF0
:100DC00020E030E040E251E4C301B2010E94180F7C
:100DD0002B013C010E9460104B01B12CA12C4AE078
:100DE000C501B4010E94C405E80EF91EC501B40195
:100DF0000E94B70E9B01AC01C301B2010E94F30F28
:100E000020E030E040E251E40E94180F0E946010A0
:100E100090E080E04AE00E94C405E80EF91E4FCF42
:100E2000CF93DF9360E085E30E94BA0161E070E058
:100E300080E090E00E943C0381E00E94B00561E008
:100E400070E080E090E00E943C0380E00E94B005EA
:100E5000D82F61E070E080E090E00E943C0361E008
:100E600085E30E94BA0161E070E080E090E00E94BA
:100E70003C0360E085E30E94BA0161E070E080E03D
:100E800090E00E943C0382E00E94B00561E070E0C7
:100E900080E090E00E943C0380E00E94B005C82FF3
:100EA00061E070E080E090E00E943C0361E085E357
:100EB0000E94BA018FE892E00E94B7056D2F70E0A2
:100EC00090E080E04AE00E94C40585EA92E00E943A
:100ED000080688EA92E00E94B7056C2F70E090E067
:100EE00080E04AE00E94C40585EA92E0DF91CF915C
:100EF0000C940806FB0144815581FC012481358155
:100F00002417350778F080819181009759F0FB0113
:100F1000608171816115710529F00E94F51221E04F
:100F2000892B09F020E0822F0895FC01248135816E
:100F3000232B39F421E0FB018081882349F020E054
:100F400007C0808191810E94E51221E0892BB9F7C9
:100F5000822F08950F931F93CF93DF93EC01888125
:100F60009981009759F02A813B812617370730F085
:100F700081E0DF91CF911F910F9108958B016F5FF9
:100F80007F4F0E94E811009759F0998388831B8353
:100F90000A832C813D81232B59F7FC011082E8CF75
:100FA00080E0E7CFCF93DF93EC01888199810097B0
:100FB00011F00E945F11198218821D821C821B820F
:100FC0001A82DF91CF910895EF92FF920F931F93B2
:100FD000CF93DF938C017B01EB0109900020E9F7AF
:100FE0002197C61BD70BBE010E94AA07811109C019
:100FF000C801DF91CF911F910F91FF90EF900C945A
:10100000D207F801D583C483B70180819181DF9134
:10101000CF911F910F91FF90EF900C94EE129F9241
:10102000AF92BF92CF92DF92EF92FF920F931F93F6
:10103000CF93DF93EC016B015A0179012417350737
:1010400020F48B2D5901E42EF82E198218821B8270
:101050001A821D821C8262E872E0CE010E94E407BF
:10106000D60114960D911C91A016B10658F5E01604
:10107000F10608F48701D601ED91FC911197E00F7C
:10108000F11F90801082ED90FC90EA0CFB1CE114A3
:10109000F10471F0F70101900020E9F731975F0149
:1010A000AE18BF08B501CE010E94AA07811117C072
:1010B000CE010E94D207F60180819181080F191F8D
:1010C000D8019C92CE01DF91CF911F910F91FF909B
:1010D000EF90DF90CF90BF90AF909F900895BD822A
:1010E000AC82B701888199810E94EE12E4CFFC01A5
:1010F00080819181009711F00C945F1108951F92E7
:101100000F920FB60F9211242F933F938F939F93BB
:10111000AF93BF938091C2039091C303A091C40386
:10112000B091C5033091BD0323E0230F2D3758F54F
:101130000196A11DB11D2093BD038093C20390931E
:10114000C303A093C403B093C5038091BE039091E1
:10115000BF03A091C003B091C1030196A11DB11DB1
:101160008093BE039093BF03A093C003B093C103C9
:10117000BF91AF919F918F913F912F910F900FBE93
:101180000F901F90189526E8230F0296A11DB11D00
:10119000D2CF1F920F920FB60F9211240BB60F925F
:1011A0002F933F934F935F936F937F938F939F936F
:1011B000AF93BF93EF93FF9386EC93E00E942204DA
:1011C000FF91EF91BF91AF919F918F917F916F911F
:1011D0005F914F913F912F910F900BBE0F900FBEDB
:1011E0000F901F9018951F920F920FB60F92112417
:1011F0000BB60F922F938F939F93EF93FF93E091F2
:10120000D603F091D7038081E091DC03F091DD03F8
:1012100082FD1DC090818091DF038F5F8F732091CD
:10122000E003821741F0E091DF03F0E0EA53FC4F66
:10123000958F8093DF03FF91EF919F918F912F9175
:101240000F900BBE0F900FBE0F901F9018958081CE
:10125000F2CFCF93DF93CDB7DEB762970FB6F89496
:10126000DEBF0FBECDBF789484B5826084BD84B5E7
:10127000816084BD85B5826085BD85B5816085BD91
:1012800080916E00816080936E0010928100809149
:1012900081008260809381008091810081608093D1
:1012A0008100809180008160809380008091B100F6
:1012B00084608093B1008091B00081608093B00021
:1012C0008091910082608093910080919100816073
:1012D0008093910080919000816080939000809134
:1012E000A10082608093A1008091A1008160809321
:1012F000A1008091A00081608093A00080912101D5
:10130000826080932101809121018160809321017D
:101310008091200181608093200180917A00846017
:1013200080937A0080917A00826080937A00809125
:101330007A00816080937A0080917A00806880933F
:101340007A001092C1001FB7F8948091AA0381110E
:1013500024C0E6E7F2E08491ECEBF2E09491E82F10
:10136000F0E0EE0FFF1FE95DFD4FA591B491EC9108
:10137000E92321F461E085E30E94BA0185E30E943C
:101380009B018CB580618CBD8CB580648CBD84E381
:101390000E949B0183E30E949B018091AA038F5FBF
:1013A0008093AA031FBF85E30E949B0161E085E350
:1013B0000E94BA01E091D603F091D70382E08083C6
:1013C000E091D203F091D3031082E091D403F09125
:1013D000D5038FEC80831092DE03E091DA03F09165
:1013E000DB0386E08083E091D803F091D90380810C
:1013F00080618083E091D803F091D9038081886077
:101400008083E091D803F091D90380818068808344
:10141000E091D803F091D90380818F7D808300E62D
:1014200012E040E8E42E42E0F42EF80180810E94B0
:101430009B01F80182810E949B01F80184810E9436
:101440009B01F80186810E949B010E949F05085F15
:101450001F4FE016F10649F783E00E949B018AEBDB
:1014600092E00E9408063324339486EC93E00E94B5
:101470000C04181619060CF072C11E861D86188AF7
:101480001F861A8A198A62E872E0CE010D960E94C0
:10149000E4070E94BE0397FD1EC08A309105D9F073
:1014A00089831A8209891A890F5F1F4FB801CE01FB
:1014B0000D960E94AA07882361F32D853E858989B0
:1014C0009A89BE016F5F7F4F820F931F0E94EE12B9
:1014D0001A8B098BDECFCD84DE84C114D10431F0A8
:1014E00009891A89760101151105B1F40D851E854A
:1014F0000115110509F446C0F80181918F01882377
:1015000009F440C0082E000C990B0E94C912F80182
:1015100031978083F1CF74014701FFEF8F1A9F0A43
:10152000F7018081082E000C990B0E94910E892BE7
:1015300091F7015011090C0D1D1DF8018081082E35
:10154000000C990B0E94910E892B31F00E151F058E
:1015500018F001501109F1CFA8014F5F5F4F4E19EC
:101560005F095A8B498BCE14DF0420F4B701C60102
:101570000E94D112ED85FE8589899A89E80FF91FAD
:101580001082B4CF1A8219821C821B821E821D8295
:1015900068EC72E0CE0101960E94E407BE016F5F25
:1015A0007F4FCE010D960E947A07182FCE0101962B
:1015B0000E947708112309F4D5C089889A88F2E03F
:1015C0008F16910420F0ED85FE853097A9F51092D5
:1015D000AB03EBEAF3E0C0800C2C000CDD08360115
:1015E00021E3621A71088114910441F1ED84FE84B3
:1015F0006FE570E0C7010E94DA128C010E191F0915
:10160000892B11F40FEF1FEFF701E80DF91DF080A2
:1016100010824D845E846FE570E0C2010E94031366
:10162000840C951CF401F082009751F02D853E85C5
:101630007C01E21AF30A07C03196CDCF0FEF1FEFFE
:10164000EE24EA94FE2CA8014F5F5F4F9701BE0184
:10165000635F7F4FCE0107960E940F0829893A8960
:10166000A7014F5F5F4FBE01635F7F4FCE010196C1
:101670000E940F0889819A81812C912C5401009736
:1016800021F00E942F0D4B015C01CE0101960E94BA
:1016900077086AEC72E0CE0107960E9495078823CE
:1016A00021F0B7FAB094B7F8B0948301000F111F7E
:1016B000000F111FF801E355FC4F20813181428159
:1016C0005381C501B4010E94F40F4B015C0120E07D
:1016D00030E044E353E40E948F1018164CF420E0ED
:1016E00030E044EB53E4C501B4010E94F30FEDCFA9
:1016F00020E030E044E353ECC501B4010E94B20E97
:1017000087FF0BC020E030E044EB53E4C501B40197
:101710000E94F40F4B015C01EBCFB501A401C301A2
:101720000E94E2048CEC92E00E94B705C601C097CB
:101730000E94160683ED92E00E94B705F801E3557A
:10174000FC4F60817181828193810E944606CE01A7
:1017500007960E947708CE010D960E9477080E9496
:10176000B10483CE1A8219821C821B821E821D82C2
:1017700067ED72E0CE0101960E94E407BE016F5F43
:101780007F4FCE010D960E947A07182FCE01019649
:101790000E947708112309F49FC06CED72E0CE011E
:1017A0000D960E949507882339F00E949F0585EECB
:1017B00092E00E940806CFCF89899A89059708F49C
:1017C00063C00D851E856FE570E0C80104960E9418
:1017D000DA12009709F458C0FC01E01BF10B8F01ED
:1017E000980144E050E0BE01635F7F4FCE01079651
:1017F0000E940F0829893A89A8014F5F5F4FBE01F7
:10180000635F7F4FCE0101960E940F0889819A8104
:10181000412C512C3201009721F00E942F0D2B01F9
:101820003C01CE0101960E9477086AEC72E0CE017D
:1018300007960E949507882321F077FA709477F82D
:1018400070949DEA892E93E0992E10E000E0F40157
:1018500061917191819191914F01A30192010E9437
:10186000F40F6B017C0120E030E044E353E40E947C
:101870008F10181664F420E030E044EB53E4C70105
:10188000B6010E94F30FEDCF0FEF1FEFA9CF20E0BD
:1018900030E044E353ECC701B6010E94B20E87FF6B
:1018A0000BC020E030E044EB53E4C701B6010E94D6
:1018B000F40F6B017C01EBCFB701A601C8010E94B8
:1018C000E2040F5F1F4F0430110509F0C0CF80EF15
:1018D00092E00E9408063BCF60E073E0CE010D96D7
:1018E0000E9495078823B1F010E000E0C8010E9433
:1018F000460265E070E080E090E00E943C030F5FEC
:101900001F4F0115F1E01F0789F73092AC0387E004
:1019100093E04FCF6EE073E0CE010D960E949507E5
:10192000882399F00FEF10E0C8010E94460265E09D
:1019300070E080E090E00E943C0301501109A0F7A4
:101940001092AC0386E193E034CF6EE173E0CE01F8
:101950000D960E949507882319F00E941007FBCE70
:1019600063E273E0CE010D960E949507882391F102
:101970008091AC03882359F18AE293E00E94080623
:101980000E94100789E493E00E9408068DEAE82E81
:1019900083E0F82E10E000E088EC92E00E94B705AA
:1019A0000F5F1F4FC8010E94160682EA92E00E9454
:1019B000B705F70161917191819191917F010E9429
:1019C00046060430110541F789E493E0F2CE89E33D
:1019D00093E0D4CF67E673E0CE010D960E949507A1
:1019E000882369F00E949F058DE693E00E94080617
:1019F00085E893E00E94080680EF92E0DACE82E963
:101A000093E0D7CEE6ECF3E01382128288EE93E007
:101A1000A0E0B0E084839583A683B78382E592E05B
:101A20009183808385EC90E09587848784EC90E0B7
:101A30009787868780EC90E0918B808B81EC90E09B
:101A4000938B828B82EC90E0958B848B86EC90E07C
:101A5000978B868B118E128E138E148E08956627A7
:101A600077270C94330D8F929F92AF92BF92CF92B3
:101A7000DF92EF92FF920F931F93CF93DF935C015E
:101A80007B016115710519F0DB018D939C93850134
:101A90000F5F1F4FF501D0818D2F90E00E94910EB6
:101AA0006C01892BB9F5DD32B9F50F5F1F4FD501F8
:101AB0001196DC91C1E05801F1E0AF1AB10843E0A2
:101AC00050E064E971E0C5010E949A0E892B69F526
:101AD000680182E0C80ED11C45E050E06FE871E07B
:101AE000C6010E949A0E892B21F4680197E0C90E65
:101AF000D11CE114F10419F0D701CD92DC9260E021
:101B000070E080E89FEFC111FFC060E070E080E806
:101B10009FE7FAC05801BBCFDB3229F485010E5F85
:101B20001F4FF501D181C0E0C6CF43E050E06CE823
:101B300071E0C5010E949A0E892BE9F0F80110E0CE
:101B400000E020E030E0A9015F01B0ED8B2E8D0EAA
:101B500089E08815C8F19C2E689491F88C2F8870C4
:101B6000C2FF16C0811102C00F5F1F4F3196D50111
:101B7000DC91C92DE9CFE114F10429F00E5F1F4F6C
:101B8000F7011183008360E070E080EC9FE7BCC048
:101B9000882311F001501109A5E0B0E00E94D90F8F
:101BA0009B01AC01220F331F441F551F280D311D0F
:101BB000411D511D283999E93907490799E159070C
:101BC000A8F2C6609C2ED2CFAEEF8A1206C0C3FD2B
:101BD0003CC09C2E689493F8C9CFDF7DD534A9F51D
:101BE00080818D3239F4C061DF011296818162E01B
:101BF00070E006C0DF018B32C1F3119661E070E046
:101C000080535D01A61AB70A8A30F8F4E0E8CE16D0
:101C1000ECE0DE065CF4B601660F771F660F771FF7
:101C2000C60ED71ECC0CDD1CC80ED11C5D01FFEF0B
:101C3000AF1ABF0A8C9180538A30A8F1C4FF03C049
:101C4000D194C194D1080C0D1D1DC1FF09C0E11430
:101C5000F10431F081E0A81AB108D701AD92BC922D
:101C6000CA01B9010E94B70EC370C33009F490587D
:101C70004B015C0120E030E0A9010E94B20E8823F4
:101C800009F440C0C3ECD1E017FF05C011950195E0
:101C90001109CBEAD1E06E01B8E1CB1AD10880E29C
:101CA000E82EF12C0FC0D501B1CFFE012591359161
:101CB000459154910E191F09C501B4010E94180FD6
:101CC0004B015C01D501C4010E151F0574F7249763
:101CD000F594E794CC16DD06A9F78A2F880F8B2F91
:101CE000881F8F3F49F020E030E0A901C501B40111
:101CF0000E94B20E811106C082E290E090936404CB
:101D000080936304C501B401DF91CF911F910F91BE
:101D1000FF90EF90DF90CF90BF90AF909F908F900B
:101D2000089591110C94850F803219F089508550D7
:101D3000C8F70895FB01DC014150504088F08D91B7
:101D400081341CF08B350CF4805E659161341CF09D
:101D50006B350CF4605E861B611171F3990B08956D
:101D6000881BFCCF0E94F40E08F481E00895E894EB
:101D700009C097FB3EF490958095709561957F4FD3
:101D80008F4F9F4F9923A9F0F92F96E9BB27939581
:101D9000F695879577956795B795F111F8CFFAF491
:101DA000BB0F11F460FF1BC06F5F7F4F8F4F9F4FC2
:101DB00016C0882311F096E911C0772321F09EE820
:101DC000872F762F05C0662371F096E8862F70E086
:101DD00060E02AF09A95660F771F881FDAF7880F60
:101DE0009695879597F90895990F0008550FAA0BB6
:101DF000E0E8FEEF16161706E807F907C0F012161E
:101E00001306E407F50798F0621B730B840B950B20
:101E100039F40A2661F0232B242B252B21F4089575
:101E20000A2609F4A140A6958FEF811D811D089512
:101E30000E942B0F0C949F0F0E94910F38F00E946C
:101E4000980F20F0952311F00C94880F0C948E0FAE
:101E500011240C94D30F0E94B00F70F3959FC1F31F
:101E6000950F50E0551F629FF001729FBB27F00D48
:101E7000B11D639FAA27F00DB11DAA1F649F66279D
:101E8000B00DA11D661F829F2227B00DA11D621FEC
:101E9000739FB00DA11D621F839FA00D611D221FA6
:101EA000749F3327A00D611D231F849F600D211D8A
:101EB000822F762F6A2F11249F5750409AF0F1F00D
:101EC00088234AF0EE0FFF1FBB1F661F771F881F76
:101ED00091505040A9F79E3F510580F00C94880F17
:101EE0000C94D30F5F3FE4F3983ED4F38695779537
:101EF0006795B795F795E7959F5FC1F7FE2B880F1C
:101F0000911D9695879597F90895992788270895A3
:101F100097F99F6780E870E060E008959FEF80EC9C
:101F2000089500240A94161617061806090608953F
:101F300000240A9412161306140605060895092EA5
:101F40000394000C11F4882352F0BB0F40F4BF2B14
:101F500011F460FF04C06F5F7F4F8F4F9F4F089554
:101F600057FD9058440F551F59F05F3F71F047954A
:101F7000880F97FB991F61F09F3F79F0879508952F
:101F8000121613061406551FF2CF4695F1DF08C04E
:101F9000161617061806991FF1CF8695710561056B
:101FA00008940895E894BB2766277727CB0197F913
:101FB00008950E94E40FA59F900DB49F900DA49FDB
:101FC000800D911D11240895A29FB001B39FC001FF
:101FD000A39F700D811D1124911DB29F700D811D55
:101FE0001124911D08955058BB27AA270E940B1059
:101FF0000C949F0F0E94910F38F00E94980F20F0D0
:1020000039F49F3F19F426F40C948E0F0EF4E095EA
:10201000E7FB0C94880FE92F0E94B00F58F3BA1712
:10202000620773078407950720F079F4A6F50C94EE
:10203000D20F0EF4E0950B2EBA2FA02D0B01B90193
:1020400090010C01CA01A0011124FF27591B99F02E
:10205000593F50F4503E68F11A16F040A22F232F3A
:10206000342F4427585FF3CF469537952795A7958A
:10207000F0405395C9F77EF41F16BA0B620B730B31
:10208000840BBAF09150A1F0FF0FBB1F661F771FA2
:10209000881FC2F70EC0BA0F621F731F841F48F457
:1020A000879577956795B795F7959E3F08F0B0CFE0
:1020B0009395880F08F09927EE0F979587950895C7
:1020C0000E94B80F88F09F5798F0B92F9927B75101
:1020D000B0F0E1F0660F771F881F991F1AF0BA95CC
:1020E000C9F714C0B13091F00E94D20FB1E0089549
:1020F0000C94D20F672F782F8827B85F39F0B93F3B
:10210000CCF3869577956795B395D9F73EF490957E
:102110008095709561957F4F8F4F9F4F08950E94D6
:10212000F40E08F48FEF08950E94F40E880B990BBB
:102130000895A1E21A2EAA1BBB1BFD010DC0AA1F08
:10214000BB1FEE1FFF1FA217B307E407F50720F020
:10215000A21BB30BE40BF50B661F771F881F991F9B
:102160001A9469F760957095809590959B01AC01E4
:10217000BD01CF010895EE0FFF1F881F8BBF079091
:10218000F691E02D19940F931F93CF93DF93823034
:10219000910510F482E090E0E0916704F09168040A
:1021A00030E020E0B0E0A0E0309799F4211531054F
:1021B00009F44AC0281B390B24303105D8F58A812F
:1021C0009B816115710589F1FB0193838283FE0177
:1021D00011C0408151810281138148175907E0F0F5
:1021E0004817590799F4109761F012960C931297BB
:1021F00013961C933296CF01DF91CF911F910F91CF
:1022000008950093670410936804F4CF21153105F5
:1022100051F04217530738F0A901DB019A01BD01C3
:10222000DF01F801C1CFEF01F9CF909368048093EB
:102230006704CDCFFE01E20FF31F819391932250EB
:10224000310939832883D7CF209165043091660402
:10225000232B41F420910202309103023093660453
:10226000209365042091000230910102211531056F
:1022700041F42DB73EB74091040250910502241B52
:10228000350BE0916504F0916604E217F307A0F4C2
:102290002E1B3F0B2817390778F0AC014E5F5F4FBC
:1022A0002417350748F04E0F5F1F50936604409384
:1022B0006504819391939FCFF0E0E0E09CCFCF93B2
:1022C000DF930097E9F0FC01329713821282A0910C
:1022D0006704B0916804ED0130E020E01097A1F4AC
:1022E00020813181820F931F209165043091660413
:1022F0002817390709F061C0F0936604E09365047C
:10230000DF91CF910895EA01CE17DF07E8F54A8102
:102310005B819E0141155105B1F7E901FB83EA8319
:1023200049915991C40FD51FEC17FD0761F48081C5
:1023300091810296840F951FE90199838883828198
:1023400093819B838A83F0E0E0E012968D919C91CB
:1023500013970097B9F52D913C911197CD010296F5
:10236000820F931F20916504309166042817390766
:1023700039F6309751F51092680410926704B093C3
:102380006604A0936504BCCFD383C283408151818E
:10239000840F951FC817D90761F44E5F5F4F88817E
:1023A0009981480F591F518340838A819B81938370
:1023B00082832115310509F0B0CFF0936804E093D2
:1023C00067049ECFFD01DC01C0CF13821282D7CFFC
:1023D0004F925F926F927F928F929F92AF92BF9235
:1023E000CF92DF92EF92FF920F931F93CF93DF93E1
:1023F0008C01009799F4CB01DF91CF911F910F9140
:10240000FF90EF90DF90CF90BF90AF909F908F9014
:102410007F906F905F904F900C94C310FC01E60F7B
:10242000F71F9C0122503109E217F30708F4AEC0F0
:10243000D901CD91DC911197C617D70720F1C5308E
:10244000D10578F0CE0104978617970750F0C61B88
:10245000D70B2297C193D1936D937C93CF010E94A8
:102460005F11C801DF91CF911F910F91FF90EF9005
:10247000DF90CF90BF90AF909F908F907F906F90A4
:102480005F904F9008955B01AC1ABD0A4C018C0E11
:102490009D1EA0916704B0916804512C412CF12C31
:1024A000E12C109731F580916504909166048815B0
:1024B000990509F05CC04616570608F058C080918F
:1024C000000290910102009741F48DB79EB74091B0
:1024D000040250910502841B950BE817F90708F0D8
:1024E00055C0F0936604E0936504F901718360833D
:1024F000B8CF8D919C91119712966C90129713966C
:102500007C901397A815B90559F56C0142E0C40EEB
:10251000D11CCA14DB0420F1AC014A195B09DA01B1
:102520001296159780F06282738251834083D9019D
:102530006D937C93E114F10471F0D7011396FC9331
:10254000EE9312978ECF22968C0F9D1FF9019183E7
:102550008083F301EFCFF0936804E093670481CFA9
:102560004816590608F42C017D01D3019ACFCB01FE
:102570000E94C3107C01009749F0AE01B8010E948F
:10258000D112C8010E945F1187016BCF10E000E0FB
:1025900068CF9111089581568A5108F48052855868
:1025A0000895FB01DC0102C001900D9241505040A2
:1025B000D8F70895FC018191861721F08823D9F777
:1025C000992708953197CF010895FB01DC018D9182
:1025D000019080190110D9F3990B0895FB01DC01DA
:1025E00001900D920020E1F70895FB01DC014150BC
:1025F000504030F08D910190801919F40020B9F706
:10260000881B990B0895FC0181E090E0019006166B
:1026100009F4CF010020D1F701970895F894FFCF76
:1026200000006904800000010001000100000101B8
:102630000000010000000100010000000100000096
:1026400001010000000100010001000034C300008E
:1026500007C30000B4C2000034C200000000000044
:1026600034420000B442000007430000344300003D
:10267000000044046E039B0391040C04AA03FE03B0
:10268000080009000A000B0004000500060007000E
:1026900019001800170016001D001C001B001A006E
:1026A0000D0A006E616E00696E66006F76660053FB
:1026B000656E736F722031202841445331313135BA
:1026C00029203A200020430053656E736F72203238
:1026D0002028554E4F29203A20004D6173746572B1
:1026E00020526561647921004D004C004D6F746F7C
:1026F000722000203D2000414C4C5F00414C4C5F5B
:10270000484F4D4500526573657420646F6E6500D7
:10271000416C6C206D6F746F727320646F6E650016
:102720004C45445F4F4E004C4544204F4E004C45B5
:10273000445F4F4646004C4544204F4646005445B2
:102740004D5000535441545553004C454420495377
:10275000204F4E20F09F92A1004C45442049532029
:102760004F464620F09F948C002D2D2D2D2D2D2D84
:102770002D2D2D2D2D2D2D2D2D2D2D2D2D2D2D2D89
:102780002D2D2D2D2D2D005245534554005265738E
:10279000657420616C6C206D6F746F727320746F40
:1027A0002030C2B000544152474554203D20302EC5
:1027B00030004552524F523A20556E6B6E6F776E15
:0A27C00020636F6D6D616E64000010
:020000040003F7
:10E000000D9489F10D94B2F10D94B2F10D94B2F129
:10E010000D94B2F10D94B2F10D94B2F10D94B2F1F0
:10E020000D94B2F10D94B2F10D94B2F10D94B2F1E0
:10E030000D94B2F10D94B2F10D94B2F10D94B2F1D0
:10E040000D94B2F10D94B2F10D94B2F10D94B2F1C0
:10E050000D94B2F10D94B2F10D94B2F10D94B2F1B0
:10E060000D94B2F10D94B2F10D94B2F10D94B2F1A0
:10E070000D94B2F10D94B2F10D94B2F10D94B2F190
:10E080000D94B2F10D94B2F10D94B2F10D94B2F180
:10E090000D94B2F10D94B2F10D94B2F10D94B2F170
:10E0A0000D94B2F10D94B2F10D94B2F10D94B2F160
:10E0B0000D94B2F10D94B2F10D94B2F10D94B2F150
:10E0C0000D94B2F10D94B2F10D94B2F10D94B2F140
:10E0D0000D94B2F10D94B2F10D94B2F10D94B2F130
:10E0E0000D94B2F141546D656761323536300041AF
:10E0F000726475696E6F206578706C6F72657220DE
:10E1000073746B3530305632206279204D4C530099
:10E11000426F6F746C6F616465723E004875683F52
:10E1200000436F6D70696C6564206F6E203D200048
:10E130004350552054797065202020203D20005FF9
:10E140005F4156525F415243485F5F3D2000415658
:10E1500052204C696243205665723D20004743437C
:10E160002056657273696F6E203D20004350552024
:10E1700049442020202020203D20004C6F7720663D
:10E18000757365202020203D20004869676820665F
:10E190007573652020203D200045787420667573D6
:10E1A00065202020203D20004C6F636B2066757336
:10E1B000652020203D20004D617220203720323024
:10E1C000313300312E362E3800342E332E350056A2
:10E1D00023202020414444522020206F7020636F70
:10E1E00064652020202020696E73747275637469E1
:10E1F0006F6E2061646472202020496E74657272B3
:10E20000757074006E6F20766563746F7200726A49
:10E210006D702020006A6D70200057686174207056
:10E220006F72743A00506F7274206E6F7420737541
:10E2300070706F72746564004D7573742062652030
:10E2400061206C6574746572002000577269747483
:10E25000696E672045450052656164696E672045B7
:10E26000450045452065727220636E743D00504F35
:10E27000525400303D5A65726F2061646472003FF1
:10E280003D43505520737461747300403D454550C3
:10E29000524F4D207465737400423D426C696E6B41
:10E2A000204C454400453D44756D70204545505215
:10E2B0004F4D00463D44756D7020464C415348001B
:10E2C000483D48656C70004C3D4C69737420492F83
:10E2D0004F20506F72747300513D51756974005234
:10E2E0003D44756D702052414D00563D73686F7707
:10E2F00020696E7465727275707420566563746FF0
:10E30000727300593D506F727420626C696E6B00BD
:10E310002A0011241FBECFEFD1E2DEBFCDBF01E046
:10E320000CBF12E0A0E0B2E0EEE1FDEF03E00BBFB6
:10E3300002C007900D92A030B107D9F712E0A0E01B
:10E34000B2E001C01D92AE30B107E1F70F9460F367
:10E350000D948DFE01E20EBF0FEF0DBF11241FBE05
:10E360000D9460F30D9400F020E030E040ED57E0B4
:10E3700005C0FA013197F1F72F5F3F4F2817390792
:10E38000C0F308959C01260F311DC901A0E0B0E043
:10E390002F5F3F4FABBFFC018791882361F08093D3
:10E3A000C6008091C00086FFFCCF8091C0008064D1
:10E3B0008093C000EACF08958DE08093C6008091DD
:10E3C000C00086FFFCCF8091C00080648093C000B5
:10E3D0008AE08093C6008091C00086FFFCCF8091C8
:10E3E000C00080648093C00008950F94C2F10F9420
:10E3F000DCF10895FC019081992359F09093C600B7
:10E400008091C00086FFFCCF8091C0008064809323
:10E41000C0003196992379F70895282F982F929567
:10E420009F70892F805D8A3308F0895F8093C600D2
:10E430008091C00086FFFCCF8091C00080648093F3
:10E44000C000822F8F70982F905D9A3308F0995FEB
:10E450009093C6008091C00086FFFCCF8091C000E1
:10E4600080648093C00008959C01FB01853691056E
:10E470001CF46330710594F0C90164E670E00F94F8
:10E480002EFE605D7F4F6093C6008091C00086FFC6
:10E49000FCCF8091C00080648093C0002B30310598
:10E4A00014F43297B4F0C90164E670E00F942EFEC4
:10E4B0006AE070E00F942EFE605D7F4F6093C600AF
:10E4C0008091C00086FFFCCF8091C0008064809363
:10E4D000C000C9016AE070E00F942EFEC0968093E0
:10E4E000C6008091C00086FFFCCF8091C000806490
:10E4F0008093C00008951F93182F8EE692EE60E07F
:10E500000F94C2F11093C6008091C00086FFFCCF2B
:10E510008091C00080648093C0000F94DCF11F9153
:10E5200008952F923F924F925F926F927F928F92B7
:10E530009F92AF92BF92CF92DF92EF92FF920F9392
:10E540001F93DF93CF93CDB7DEB762970FB6F894E2
:10E55000DEBF0FBECDBF382E622ECA01DB015C01CB
:10E560006D01772420E2222E2E010894411C511CBB
:10E570008BC081E0A81680E0B80681E0C80680E084
:10E58000D80628F0C601AA27BB270F940DF2BB2797
:10E59000AD2D9C2D8B2D0F940DF28A2D0F940DF225
:10E5A0002092C6008091C00086FFFCCF8091C00001
:10E5B00080648093C0009DE29093C6008091C0006B
:10E5C00086FFFCCF8091C00080648093C0002092C1
:10E5D000C6008091C00086FFFCCF8091C00080649F
:10E5E0008093C00019828601750188249924A1E0D6
:10E5F0003A1651F03A1620F0B2E03B1661F409C029
:10E600000BBFF701779007C0C7010F9477FE782EF4
:10E6100002C0F7017080872D0F940DF22092C60082
:10E620008091C00086FFFCCF8091C0008064809301
:10E63000C000872D8052F401EF70F0708F3520F408
:10E64000E40DF51D708204C0E40DF51D8EE280839B
:10E650000894E11CF11C011D111D0894811C911CE2
:10E6600090E18916910409F0C2CF80E190E0A0E02A
:10E67000B0E0A80EB91ECA1EDB1E198AC2010F9493
:10E68000FAF10F94DCF16A94662009F072CF629679
:10E690000FB6F894DEBF0FBECDBFCF91DF911F91B3
:10E6A0000F91FF90EF90DF90CF90BF90AF909F9031
:10E6B0008F907F906F905F904F903F902F90089534
:10E6C0002F923F924F925F926F927F928F929F9282
:10E6D000AF92BF92CF92DF92EF92FF920F931F9370
:10E6E000DF93CF93CDB7DEB7CD53D1400FB6F894BB
:10E6F000DEBF0FBECDBF01E20EBF0FEF0DBF94B75F
:10E70000F894A89514BE80916000886180936000A1
:10E7100010926000789493FF05C0E0910002F091A0
:10E7200001021995279A2F9A8091C00082608093E8
:10E73000C00080E18093C40088E18093C1000000A4
:10E74000EE24FF24870144E0A42EB12CCC24DD2448
:10E7500024C0C5010197F1F70894E11CF11C011DCB
:10E76000111D21E2E2162EE4F20620E0020720E06D
:10E77000120718F031E0C32ED12CC801B70127ECE5
:10E780003BE140E050E00F9441FE611571058105C9
:10E79000910519F485B1805885B98091C00087FD35
:10E7A00003C0C114D104A9F2A6014F5F5F4FC25E3E
:10E7B000DE4F59834883CE51D140C25EDE4F8881FF
:10E7C0009981CE51D140019711F00D9410FEC05D9A
:10E7D000DE4F19821882C053D14060E0C15DDE4F28
:10E7E0001882CF52D14088249924C35DDE4F19820C
:10E7F0001882CD52D140C05EDE4F188219821A8233
:10E800001B82C052D140CE5CDE4F188219821A8220
:10E810001B82C253D140EE24FF2487010BBFF701B6
:10E8200007911691C45CDE4F19830883CC53D14005
:10E830000D940BFEC25EDE4F28813981CE51D1404E
:10E840002130310509F52091C600C25EDE4F1982E4
:10E850001882CE51D14022C02F5F3F4F4F4F5F4FA4
:10E86000213082E138078AE7480780E0580780F0C6
:10E87000C45CDE4FE881F981CC53D140EF5FFF4F9C
:10E8800019F0EE27FF27099420E030E040E050E047
:10E890008091C00087FFE0CF2091C600C35DDE4FAE
:10E8A00048815981CD52D1404F5F5F4FC35DDE4FEC
:10E8B00059834883CD52D140213209F063C64A3092
:10E8C000510508F05FC60894811C911C53E0851621
:10E8D000910409F059C600E010E018C081E280936D
:10E8E000C6008091C00086FFFCCF8091C00080648C
:10E8F0008093C0002F5F3F4F2931310579F70F9486
:10E90000DCF10F5F1F4F0530110519F020E030E0FA
:10E91000E5CF10920A0210920B0210920C02109294
:10E920000D02109206021092070210920802109235
:10E930000902109202021092030210920402109235
:10E9400005028FEE90EE60E00F94F5F180E191EE1C
:10E9500060E00F94C2F18091C00087FFFCCF9091DE
:10E96000C600903608F09F759032B8F09093C600BC
:10E970008091C00086FFFCCF8091C00080648093AE
:10E98000C000A0E2A093C6008091C00086FFFCCF2B
:10E990008091C00080648093C000983409F4D7C18E
:10E9A0009934B8F4923409F459C1933458F490333B
:10E9B00019F1903308F4E3C59F33A1F1903409F0C5
:10E9C000DEC5BDC0953409F470C1963409F0D7C5D1
:10E9D00098C1923509F42BC2933538F49C3409F46C
:10E9E000F5C1913509F0CBC518C2963509F445C279
:10E9F000993509F0C4C567C483E792EE62E00F94CD
:10EA0000F5F110920602109207021092080210927D
:10EA1000090210920A0210920B0210920C0210923C
:10EA20000D0213C18FE792EE62E00F94F5F18FEEC5
:10EA300090EE60E00F94F5F181E291EE60E00F94CA
:10EA4000C2F187EB91EE60E00F94F5F180E391EE77
:10EA500060E00F94C2F184EE90EE60E00F94F5F167
:10EA60008FE391EE60E00F94C2F186E090E061E008
:10EA700070E00F9434F20F94DCF18DE591EE60E0DC
:10EA80000F94C2F189EC91EE60E00F94F5F18EE401
:10EA900091EE60E00F94C2F183EC91EE60E00F9490
:10EAA000F5F18CE691EE60E00F94C2F18EE10F94E7
:10EAB0000DF288E90F940DF281E00F940DF20F949E
:10EAC000DCF18BE791EE60E00F94C2F119E0E0E039
:10EAD000F0E010935700E4918E2F0F940DF20F94F5
:10EAE000DCF18AE891EE60E00F94C2F1E3E0F0E03F
:10EAF00010935700E4918E2F0F940DF20F94DCF1D8
:10EB000089E991EE60E00F94C2F1E2E0F0E0109349
:10EB10005700E4918E2F0F940DF20F94DCF188EAE8
:10EB200091EE60E00F94C2F1E1E0F0E01093570045
:10EB30001491812F0F940DF20F94DCF107CF8BE825
:10EB400092EE62E00F94F5F18BE492EE60E00F94A8
:10EB5000F5F10F94DCF100E010E019C0C8016F2D51
:10EB60000F947FFEFF2031F489E492EE60E00F9471
:10EB7000C2F10BC0F092C6008091C00086FFFCCFAE
:10EB80008091C00080648093C0000F5F1F4FC80158
:10EB900081519F41A0E0B0E0ABBFFC01F790BAE229
:10EBA000FB1621F0E2E000301E07C1F60F94DCF105
:10EBB0000F94DCF187E592EE60E00F94F5F10F948D
:10EBC000DCF1CC24DD2400E010E01EC0C8010F946D
:10EBD00077FEF82E882331F489E492EE60E00F94FA
:10EBE000C2F10BC08093C6008091C00086FFFCCFAD
:10EBF0008091C00080648093C000FE1419F00894D6
:10EC0000C11CD11C0F5F1F4FC80181519F41A0E063
:10EC1000B0E0ABBFFC01E790FAE2EF1621F022E092
:10EC20000030120799F60F94DCF10F94DCF182E6C4
:10EC300092EE60E00F94C2F1C60161E070E00F94C3
:10EC400034F20F94DCF10F94DCF110920202109276
:10EC50000302109204021092050278CE89E992EE26
:10EC600062E00F94F5F1279A2F9A16C02F9880E052
:10EC700090E0E0EDF7E03197F1F7019684369105E9
:10EC8000C1F72F9A80E090E0E0EDF7E03197F1F7DF
:10EC9000019684369105C1F78091C00087FFE6CFC9
:10ECA0008091C00087FFFCCF64C485EA92EE62E0E9
:10ECB0000F94F5F140910202509103026091040219
:10ECC0007091050281E020E10F9491F2809102029F
:10ECD00090910302A0910402B091050280509F4FD1
:10ECE000AF4FBF4F8093020290930302A0930402A0
:10ECF000B093050280509041A040B04008F426CE69
:10ED0000A4CF83EB92EE62E00F94F5F140910602FE
:10ED100050910702609108027091090280E020E1A1
:10ED20000F9491F28091060290910702A09108023F
:10ED3000B091090280509F4FAF4FBF4F80930602A2
:10ED400090930702A0930802B0930902FFCD80ECD4
:10ED500092EE62E00F94F5F183E792EE60E00F949B
:10ED6000F5F18FE792EE60E00F94F5F18BE892EE0B
:10ED700060E00F94F5F189E992EE60E00F94F5F10F
:10ED800085EA92EE60E00F94F5F183EB92EE60E09D
:10ED90000F94F5F180EC92EE60E00F94F5F187ECC2
:10EDA00092EE60E00F94F5F188ED92EE60E00F9442
:10EDB000F5F18FED92EE60E00F94F5F18AEE92EEB0
:10EDC00060E00F94F5F183E093EEBDCD87EC92EE19
:10EDD00062E00F94F5F181E40F947BF282E40F94EA
:10EDE0007BF283E40F947BF284E40F947BF285E45E
:10EDF0000F947BF286E40F947BF287E40F947BF20E
:10EE000088E40F947BF28AE40F947BF28BE40F94F6
:10EE10007BF28CE40F947BF299CD88ED92EE62E068
:10EE20000F94F5F1772473948824992409C48FED05
:10EE300092EE62E00F94F5F140910A0250910B02BC
:10EE400060910C0270910D0282E020E10F9491F22A
:10EE500080910A0290910B02A0910C02B0910D02D8
:10EE600080509F4FAF4FBF4F80930A0290930B0289
:10EE7000A0930C02B0930D0269CD8AEE92EE62E08F
:10EE80000F94F5F184EE90EE60E00F94F5F18FECC5
:10EE900091EE60E00F94F5F1662477244301CC5D98
:10EEA000DE4F19821882C452D140D401C301B695F5
:10EEB000A79597958795CA5DDE4F88839983AA8326
:10EEC000BB83C652D140CC5DDE4FA881B981C4520C
:10EED000D1401196CC5DDE4FB983A883C452D14096
:10EEE000CD0162E070E00F9434F2B0E2B093C6005E
:10EEF0008091C00086FFFCCF8091C0008064809329
:10EF0000C000EDE2E093C6008091C00086FFFCCF18
:10EF10008091C00080648093C000F0E2F093C6004E
:10EF20008091C00086FFFCCF8091C00080648093F8
:10EF3000C000CA5DDE4FE880F9800A811B81C6529D
:10EF4000D140BB27A12F902F8F2D0F940DF2CA5DBA
:10EF5000DE4F8881C652D1400F940DF2B0E2FB2EF5
:10EF6000F092C6008091C00086FFFCCF8091C00067
:10EF700080648093C0000DE30093C6008091C000C0
:10EF800086FFFCCF8091C00080648093C00010E2B7
:10EF90001093C6008091C00086FFFCCF8091C00016
:10EFA00080648093C0008BBEF3012791C65DDE4F65
:10EFB0002883CA52D140A22EBB24CC24DD2408943D
:10EFC000611C711C811C911C8BBEF3018791282E42
:10EFD0003324442455240894611C711C811C911C09
:10EFE0008BBEF3013791C55DDE4F3883CB52D140E4
:10EFF0000894611C711C811C911C8BBEF30147910C
:10F00000C45DDE4F4883CC52D140ADEFEA2EAFEF66
:10F01000FA2EAFEF0A2FAFEF1A2F6E0C7F1C801E57
:10F02000911E142D032DF22CEE24EA0CFB1C0C1D5A
:10F030001D1D0F940DF220E22093C6008091C000A8
:10F0400086FFFCCF8091C00080648093C000C65DC5
:10F05000DE4F8881CA52D1400F940DF230E23093D6
:10F06000C6008091C00086FFFCCF8091C000806404
:10F070008093C000C45DDE4F8881CC52D1400F9494
:10F080000DF240E24093C6008091C00086FFFCCFA5
:10F090008091C00080648093C000C55DDE4F888190
:10F0A000CB52D1400F940DF250E25093C6008091A4
:10F0B000C00086FFFCCF8091C00080648093C000B8
:10F0C0008FEFE8168FEFF80680E0080780E018075A
:10F0D00031F484E092EE60E00F94C2F1DFC0D80119
:10F0E000C7018070907CA070B0708050904CA040A0
:10F0F000B040D1F52FEF3FE340E050E0E222F322B1
:10F1000004231523CA5DDE4FA880B980CA80DB8046
:10F11000C652D140AE0CBF1CC01ED11EAA0CBB1CD7
:10F12000CC1CDD1C8EE092EE60E00F94C2F1BB2798
:10F13000A12F902F8F2D0F940DF28E2D0F940DF285
:10F1400030E23093C6008091C00086FFFCCF8091F2
:10F15000C00080648093C0004EE34093C60080915D
:10F16000C00086FFFCCF87C08EE09EEFA0E0B0E03D
:10F17000E822F9220A231B239CE0E91694E9F90608
:10F1800090E0090790E0190709F088C0C45DDE4FE0
:10F19000A881CC52D140EA2EFF2400E010E0102FCD
:10F1A0000F2DFE2CEE24C55DDE4FB881CB52D14031
:10F1B000EB0EF11C011D111DD601C501817090706F
:10F1C000A070B070DC0199278827E80EF91E0A1F8D
:10F1D0001B1F20EF30E040E050E0A222B322C42207
:10F1E000D52241E1AA0CBB1CCC1CDD1C4A95D1F7F1
:10F1F000EA0CFB1C0C1D1D1D81E090E0A0E0B0E0BE
:10F20000282239224A225B2235E1220C331C441C7D
:10F21000551C3A95D1F7E20CF31C041D151D57013E
:10F220006801AA0CBB1CCC1CDD1C85E192EE60E0E1
:10F230000F94C2F1C801AA27BB270F940DF2BB2778
:10F24000A12F902F8F2D0F940DF28E2D0F940DF274
:10F2500090E29093C6008091C00086FFFCCF809121
:10F26000C00080648093C000AEE3A093C60080918C
:10F27000C00086FFFCCF8091C00080648093C000F6
:10F28000C601AA27BB270F940DF2BB27AD2D9C2DDD
:10F290008B2D0F940DF28A2D0F940DF20F94DCF14B
:10F2A000CC5DDE4FE881F981C452D140F99709F471
:10F2B0004DCBF4E0EF2EF12C012D112D6E0C7F1CA7
:10F2C000801E911EF2CD83E093EE62E00F94F5F183
:10F2D0008AE192EE60E00F94C2F18091C00087FF56
:10F2E000FCCF1091C6001F751093C6008091C0001E
:10F2F00086FFFCCF8091C00080648093C0000F9493
:10F30000DCF1812F81548A3108F036C1163409F4BA
:10F3100095C0173490F4133409F44EC0143430F40B
:10F320001134F1F0123409F01DC130C0143409F465
:10F3300059C0153409F016C16BC01A3409F4C4C0A1
:10F340001B3438F4173409F48FC0183409F00AC19B
:10F35000A1C01B3409F4D2C01C3409F003C1E8C0B9
:10F360008FEF81B90DC082B1809582B980E090E0C5
:10F37000E0EDF7E03197F1F70196883C9105C1F790
:10F380008091C00087FFEFCF12B8EFC08FEF84B934
:10F390000DC085B1809585B980E090E0E0EDF7E0A3
:10F3A0003197F1F70196883C9105C1F78091C00033
:10F3B00087FFEFCF15B8D9C08FEF87B90DC088B1DF
:10F3C000809588B980E090E0E0EDF7E03197F1F7C3
:10F3D0000196883C9105C1F78091C00087FFEFCF6F
:10F3E00018B8C3C08FEF8AB90DC08BB180958BB9A7
:10F3F00080E090E0E0EDF7E03197F1F70196883C8E
:10F400009105C1F78091C00087FFEFCF1BB8ADC059
:10F410008FEF8DB90DC08EB180958EB980E090E0F0
:10F42000E0EDF7E03197F1F70196883C9105C1F7DF
:10F430008091C00087FFEFCF1EB897C08FEF80BBD1
:10F440000DC081B3809581BB80E090E0E0EDF7E0F6
:10F450003197F1F70196883C9105C1F78091C00082
:10F4600087FFEFCF11BA81C08FEF83BB0DC084B38C
:10F47000809584BB80E090E0E0EDF7E03197F1F714
:10F480000196883C9105C1F78091C00087FFEFCFBE
:10F4900014BA6BC08FEF809301010FC080910201FD
:10F4A00080958093020180E090E0E0EDF7E03197F5
:10F4B000F1F70196883C9105C1F78091C00087FF64
:10F4C000EDCF1092020151C08FEF809304010FC065
:10F4D0008091050180958093050180E090E0E0ED4A
:10F4E000F7E03197F1F70196883C9105C1F78091DB
:10F4F000C00087FFEDCF1092050137C08FEF8093DA
:10F5000007010FC08091080180958093080180E079
:10F5100090E0E0EDF7E03197F1F70196883C910536
:10F52000C1F78091C00087FFEDCF109208011DC088
:10F530008FEF80930A010FC080910B01809580931B
:10F540000B0180E090E0E0EDF7E03197F1F70196F4
:10F55000883C9105C1F78091C00087FFEDCF1092E4
:10F560000B0103C085E292EEEEC98091C00087FFD7
:10F57000FCCF8091C600EAC988E392EEE4C98CE131
:10F5800091EEE1C988249924933011F1943028F444
:10F59000913089F09230B8F408C0953061F195301F
:10F5A000F0F0963009F048C043C02B3109F042C951
:10F5B00091E06BE13FC96227C15DDE4F2883CF52E6
:10F5C000D14092E037C9B22FA0E0622793E032C960
:10F5D000822F90E0A82BB92B622794E02BC92E3004
:10F5E00009F039C3622795E0C05DDE4F19821882A9
:10F5F000C053D1401FC9E1E0F0E0EC0FFD1FC05D3A
:10F60000DE4F08811981C053D140E00FF11F2083E4
:10F610000F5F1F4FC05DDE4F19830883C053D14079
:10F6200062270A171B0709F005C9D80196E002C92D
:10F63000261709F010C303C0973009F0FBC87724E0
:10F640009981933109F412C19431C8F4963009F4C8
:10F65000D8C0973050F4923009F406C1933009F4C1
:10F660006DC0913009F059C253C0913109F477C08F
:10F67000923108F0BBC0903109F04FC2F5C098310B
:10F6800009F487C0993150F4953109F4EFC09531F0
:10F6900008F4C6C1963109F040C2C2C19A3109F4DA
:10F6A0006CC09A3108F491C09B3109F45BC09D3164
:10F6B00009F033C29D81903359F48F81882311F46E
:10F6C0009EE11CC0813011F091E018C098E916C08D
:10F6D000892F807591F0903539F4E0E0F0E089E011
:10F6E0008093570094910AC0983539F4E3E0F0E034
:10F6F00089E080935700949101C090E01A821B82A8
:10F700008D818C831D829E831F8227E030E009C299
:10F710001A8288E08B8381E48C8386E58D8382E581
:10F720008E8389E48F8383E5888780E589878FE5E9
:10F730008A8782E38B872BE030E0F3C18A818139AD
:10F7400041F0823941F0803911F48FE005C080E04A
:10F7500003C082E001C08AE01A828B8344C0772410
:10F76000739482C08D81882311F48EE12CC0813086
:10F7700011F081E028C088E926C01A82E1E0F0E0BB
:10F7800089E08093570084918B831C8224E030E0D1
:10F79000C8C18B81803589F48C81883039F4E2E0EE
:10F7A000F0E089E08093570084910DC0E0E0F0E044
:10F7B00089E080935700849106C0E3E0F0E089E09F
:10F7C0008093570084911A82DFCF8D81836C99E0FA
:10F7D000E1E0F0E0082E90935700E89507B600FCB2
:10F7E000FDCF1A821B8223E030E09BC180EC8A832C
:10F7F000CE5CDE4F188219821A821B82C253D1401E
:10F800008EC18A8190E0A0E0B0E0582F44273327D2
:10F8100022278B8190E0A0E0B0E0DC0199278827C7
:10F82000282B392B4A2B5B2B8D8190E0A0E0B0E098
:10F83000282B392B4A2B5B2B8C8190E0A0E0B0E089
:10F84000BA2FA92F982F8827282B392B4A2B5B2BCF
:10F85000220F331F441F551FC05EDE4F288339839C
:10F860004A835B83C052D1401A8259C13A81C95C34
:10F87000DE4F3883C753D140CA5CDE4F1882C6536F
:10F88000D1408B81C82EDD24CA5CDE4F488159816E
:10F89000C653D140C42AD52A933109F082C0CE5C28
:10F8A000DE4F88819981AA81BB81C253D1408050AB
:10F8B000904CA340B04030F583E0CE5CDE4FE88052
:10F8C000F9800A811B81C253D140F70100935B008C
:10F8D00080935700E89507B600FCFDCFCE5CDE4F65
:10F8E000088119812A813B81C253D14000501F4FAA
:10F8F0002F4F3F4FCE5CDE4F088319832A833B8313
:10F90000C253D140C05EDE4F488159816A817B81FC
:10F91000C052D140DE011B9631E08C9111962C91A2
:10F9200011971296C75CDE4F2883C953D140C85C3B
:10F93000DE4F1882C853D14090E0C85CDE4FE881AA
:10F94000F981C853D1408E2B9F2B0C01FA01609393
:10F950005B0030935700E89511244E5F5F4F6F4F67
:10F960007F4F0EEFE02E0FEFF02ECE0CDF1CC114F8
:10F97000D10499F685E0C05EDE4F088119812A81A5
:10F980003B81C052D140F80120935B008093570027
:10F99000E89507B600FCFDCF81E180935700E8951C
:10F9A00035C0C05EDE4F88819981AA81BB81C0527B
:10F9B000D140B695A795979587957C018601ABE0D8
:10F9C000AA2EB12CAC0EBD1E0BC0D5016D915D01F0
:10F9D000C7010F947FFE0894E11CF11C01501040F8
:10F9E0000115110591F7A60160E070E0440F551F65
:10F9F000661F771FC05EDE4FE880F9800A811B8199
:10FA0000C052D1404E0D5F1D601F711F1A82C05E33
:10FA1000DE4F488359836A837B83C052D1407FC0C5
:10FA2000FA80C55CDE4FF882CB53D140C65CDE4F16
:10FA30001882CA53D1408B81C82EDD24C65CDE4FAC
:10FA400008811981CA53D140C02AD12A1A828981DA
:10FA5000BE016D5F7F4F843121F59601C05EDE4FA0
:10FA6000E880F9800A811B81C052D1400BBFF701A9
:10FA700087919691DB018C9311969C936E5F7F4FDB
:10FA8000D801C7010296A11DB11DC05EDE4F88835B
:10FA90009983AA83BB83C052D14022503040F1F6F3
:10FAA00036C0C05EDE4F288139814A815B81C052F9
:10FAB000D1400894C108D108760100E010E0089414
:10FAC000C11CD11C0894E11CF11C011D111DE20E8A
:10FAD000F31E041F151F21BDBB27A52F942F832FB5
:10FAE00082BD2F5F3F4F4F4F5F4FF89A80B5DB01CC
:10FAF0008D93BD012E153F054007510761F7C05E8C
:10FB0000DE4F288339834A835B83C052D1409601FC
:10FB10002D5F3F4FFB01108204C080EC8A8322E0FE
:10FB200030E08BE18093C6008091C00086FFFCCF5F
:10FB30008091C00080648093C000C15DDE4FF88179
:10FB4000CF52D140F093C6008091C00086FFFCCF19
:10FB50008091C00080648093C000432F3093C60022
:10FB60008091C00086FFFCCF8091C00080648093AC
:10FB7000C000922F2093C6008091C00086FFFCCF6A
:10FB80008091C00080648093C0008EE08093C600A6
:10FB90008091C00086FFFCCF8091C000806480937C
:10FBA000C00065E1C15DDE4FE880CF52D1406E25D7
:10FBB00069276427FE01319610C090819093C6009A
:10FBC0008091C00086FFFCCF31968091C000806498
:10FBD0008093C0006927215030402115310569F715
:10FBE0006093C6008091C00086FFFCCF8091C0006A
:10FBF00080648093C00085B1805885B9772081F4F6
:10FC0000C15DDE4F0881CF52D1400F5FC15DDE4F35
:10FC10000883CF52D14090E0A0E0B0E00D941AF4F8
:10FC200027982F9880E090E020ED37E0F901319798
:10FC3000F1F7019684369105C9F700008091C00064
:10FC40008D7F8093C00081E180935700E895EE2777
:10FC5000FF270994FFCF90E00D941AF497FB092E2B
:10FC600007260AD077FD04D02ED006D000201AF443
:10FC7000709561957F4F0895F6F7909581959F4F08
:10FC80000895A1E21A2EAA1BBB1BFD010DC0AA1FDD
:10FC9000BB1FEE1FFF1FA217B307E407F50720F0F5
:10FCA000A21BB30BE40BF50B661F771F881F991F70
:10FCB0001A9469F760957095809590959B01AC01B9
:10FCC000BD01CF010895AA1BBB1B51E107C0AA1FAC
:10FCD000BB1FA617B70710F0A61BB70B881F991FED
:10FCE0005A95A9F780959095BC01CD010895F99991
:10FCF000FECF92BD81BDF89A992780B50895262F31
:10FD0000F999FECF1FBA92BD81BD20BD0FB6F89400
:0EFD1000FA9AF99A0FBE01960895F894FFCF63
:00000001FF
